{
    "_format": "hh-sol-artifact-1",
    "contractName": "Game",
    "sourceName": "contracts/Game.sol",
    "abi": [
        {
            "inputs": [
                {
                    "internalType": "string[]",
                    "name": "characterNames",
                    "type": "string[]"
                },
                {
                    "internalType": "string[]",
                    "name": "characterImageURIs",
                    "type": "string[]"
                },
                {
                    "internalType": "uint256[]",
                    "name": "characterHealth",
                    "type": "uint256[]"
                },
                {
                    "internalType": "uint256[]",
                    "name": "characterAttack",
                    "type": "uint256[]"
                },
                {
                    "internalType": "string",
                    "name": "bossName",
                    "type": "string"
                },
                {
                    "internalType": "string",
                    "name": "bossImageURI",
                    "type": "string"
                },
                {
                    "internalType": "uint256",
                    "name": "bossHealth",
                    "type": "uint256"
                },
                {
                    "internalType": "uint256",
                    "name": "bossAttack",
                    "type": "uint256"
                }
            ],
            "stateMutability": "nonpayable",
            "type": "constructor"
        },
        {
            "anonymous": false,
            "inputs": [
                {
                    "indexed": true,
                    "internalType": "address",
                    "name": "owner",
                    "type": "address"
                },
                {
                    "indexed": true,
                    "internalType": "address",
                    "name": "approved",
                    "type": "address"
                },
                {
                    "indexed": true,
                    "internalType": "uint256",
                    "name": "tokenId",
                    "type": "uint256"
                }
            ],
            "name": "Approval",
            "type": "event"
        },
        {
            "anonymous": false,
            "inputs": [
                {
                    "indexed": true,
                    "internalType": "address",
                    "name": "owner",
                    "type": "address"
                },
                {
                    "indexed": true,
                    "internalType": "address",
                    "name": "operator",
                    "type": "address"
                },
                {
                    "indexed": false,
                    "internalType": "bool",
                    "name": "approved",
                    "type": "bool"
                }
            ],
            "name": "ApprovalForAll",
            "type": "event"
        },
        {
            "anonymous": false,
            "inputs": [
                {
                    "indexed": false,
                    "internalType": "uint256",
                    "name": "newBossHealth",
                    "type": "uint256"
                },
                {
                    "indexed": false,
                    "internalType": "uint256",
                    "name": "newPlayerHealth",
                    "type": "uint256"
                }
            ],
            "name": "AttackComplete",
            "type": "event"
        },
        {
            "anonymous": false,
            "inputs": [
                {
                    "indexed": false,
                    "internalType": "address",
                    "name": "sender",
                    "type": "address"
                },
                {
                    "indexed": false,
                    "internalType": "uint256",
                    "name": "_tokenId",
                    "type": "uint256"
                },
                {
                    "indexed": false,
                    "internalType": "uint256",
                    "name": "_characterIndex",
                    "type": "uint256"
                }
            ],
            "name": "CharacterNFTMinted",
            "type": "event"
        },
        {
            "anonymous": false,
            "inputs": [
                {
                    "indexed": true,
                    "internalType": "address",
                    "name": "from",
                    "type": "address"
                },
                {
                    "indexed": true,
                    "internalType": "address",
                    "name": "to",
                    "type": "address"
                },
                {
                    "indexed": true,
                    "internalType": "uint256",
                    "name": "tokenId",
                    "type": "uint256"
                }
            ],
            "name": "Transfer",
            "type": "event"
        },
        {
            "inputs": [
                {
                    "internalType": "address",
                    "name": "to",
                    "type": "address"
                },
                {
                    "internalType": "uint256",
                    "name": "tokenId",
                    "type": "uint256"
                }
            ],
            "name": "approve",
            "outputs": [],
            "stateMutability": "nonpayable",
            "type": "function"
        },
        {
            "inputs": [],
            "name": "attackBoss",
            "outputs": [],
            "stateMutability": "nonpayable",
            "type": "function"
        },
        {
            "inputs": [
                {
                    "internalType": "address",
                    "name": "owner",
                    "type": "address"
                }
            ],
            "name": "balanceOf",
            "outputs": [
                {
                    "internalType": "uint256",
                    "name": "",
                    "type": "uint256"
                }
            ],
            "stateMutability": "view",
            "type": "function"
        },
        {
            "inputs": [],
            "name": "bigBoss",
            "outputs": [
                {
                    "internalType": "string",
                    "name": "name",
                    "type": "string"
                },
                {
                    "internalType": "string",
                    "name": "imageURI",
                    "type": "string"
                },
                {
                    "internalType": "uint256",
                    "name": "health",
                    "type": "uint256"
                },
                {
                    "internalType": "uint256",
                    "name": "maxHealth",
                    "type": "uint256"
                },
                {
                    "internalType": "uint256",
                    "name": "attack",
                    "type": "uint256"
                }
            ],
            "stateMutability": "view",
            "type": "function"
        },
        {
            "inputs": [],
            "name": "checkIfUserHasNFT",
            "outputs": [
                {
                    "components": [
                        {
                            "internalType": "uint256",
                            "name": "characterIndex",
                            "type": "uint256"
                        },
                        {
                            "internalType": "string",
                            "name": "name",
                            "type": "string"
                        },
                        {
                            "internalType": "string",
                            "name": "imageURI",
                            "type": "string"
                        },
                        {
                            "internalType": "uint256",
                            "name": "health",
                            "type": "uint256"
                        },
                        {
                            "internalType": "uint256",
                            "name": "maxHealth",
                            "type": "uint256"
                        },
                        {
                            "internalType": "uint256",
                            "name": "attack",
                            "type": "uint256"
                        }
                    ],
                    "internalType": "struct Game.Attributes",
                    "name": "",
                    "type": "tuple"
                }
            ],
            "stateMutability": "view",
            "type": "function"
        },
        {
            "inputs": [],
            "name": "getAllDefaultCharacters",
            "outputs": [
                {
                    "components": [
                        {
                            "internalType": "uint256",
                            "name": "characterIndex",
                            "type": "uint256"
                        },
                        {
                            "internalType": "string",
                            "name": "name",
                            "type": "string"
                        },
                        {
                            "internalType": "string",
                            "name": "imageURI",
                            "type": "string"
                        },
                        {
                            "internalType": "uint256",
                            "name": "health",
                            "type": "uint256"
                        },
                        {
                            "internalType": "uint256",
                            "name": "maxHealth",
                            "type": "uint256"
                        },
                        {
                            "internalType": "uint256",
                            "name": "attack",
                            "type": "uint256"
                        }
                    ],
                    "internalType": "struct Game.Attributes[]",
                    "name": "",
                    "type": "tuple[]"
                }
            ],
            "stateMutability": "view",
            "type": "function"
        },
        {
            "inputs": [
                {
                    "internalType": "uint256",
                    "name": "tokenId",
                    "type": "uint256"
                }
            ],
            "name": "getApproved",
            "outputs": [
                {
                    "internalType": "address",
                    "name": "",
                    "type": "address"
                }
            ],
            "stateMutability": "view",
            "type": "function"
        },
        {
            "inputs": [],
            "name": "getBoss",
            "outputs": [
                {
                    "components": [
                        {
                            "internalType": "string",
                            "name": "name",
                            "type": "string"
                        },
                        {
                            "internalType": "string",
                            "name": "imageURI",
                            "type": "string"
                        },
                        {
                            "internalType": "uint256",
                            "name": "health",
                            "type": "uint256"
                        },
                        {
                            "internalType": "uint256",
                            "name": "maxHealth",
                            "type": "uint256"
                        },
                        {
                            "internalType": "uint256",
                            "name": "attack",
                            "type": "uint256"
                        }
                    ],
                    "internalType": "struct Game.Boss",
                    "name": "",
                    "type": "tuple"
                }
            ],
            "stateMutability": "view",
            "type": "function"
        },
        {
            "inputs": [
                {
                    "internalType": "address",
                    "name": "owner",
                    "type": "address"
                },
                {
                    "internalType": "address",
                    "name": "operator",
                    "type": "address"
                }
            ],
            "name": "isApprovedForAll",
            "outputs": [
                {
                    "internalType": "bool",
                    "name": "",
                    "type": "bool"
                }
            ],
            "stateMutability": "view",
            "type": "function"
        },
        {
            "inputs": [
                {
                    "internalType": "uint256",
                    "name": "_characterIndex",
                    "type": "uint256"
                }
            ],
            "name": "mintCharacterNFT",
            "outputs": [],
            "stateMutability": "nonpayable",
            "type": "function"
        },
        {
            "inputs": [],
            "name": "name",
            "outputs": [
                {
                    "internalType": "string",
                    "name": "",
                    "type": "string"
                }
            ],
            "stateMutability": "view",
            "type": "function"
        },
        {
            "inputs": [
                {
                    "internalType": "uint256",
                    "name": "",
                    "type": "uint256"
                }
            ],
            "name": "nftHolderAttributes",
            "outputs": [
                {
                    "internalType": "uint256",
                    "name": "characterIndex",
                    "type": "uint256"
                },
                {
                    "internalType": "string",
                    "name": "name",
                    "type": "string"
                },
                {
                    "internalType": "string",
                    "name": "imageURI",
                    "type": "string"
                },
                {
                    "internalType": "uint256",
                    "name": "health",
                    "type": "uint256"
                },
                {
                    "internalType": "uint256",
                    "name": "maxHealth",
                    "type": "uint256"
                },
                {
                    "internalType": "uint256",
                    "name": "attack",
                    "type": "uint256"
                }
            ],
            "stateMutability": "view",
            "type": "function"
        },
        {
            "inputs": [
                {
                    "internalType": "address",
                    "name": "",
                    "type": "address"
                }
            ],
            "name": "nftHolders",
            "outputs": [
                {
                    "internalType": "uint256",
                    "name": "",
                    "type": "uint256"
                }
            ],
            "stateMutability": "view",
            "type": "function"
        },
        {
            "inputs": [
                {
                    "internalType": "uint256",
                    "name": "tokenId",
                    "type": "uint256"
                }
            ],
            "name": "ownerOf",
            "outputs": [
                {
                    "internalType": "address",
                    "name": "",
                    "type": "address"
                }
            ],
            "stateMutability": "view",
            "type": "function"
        },
        {
            "inputs": [
                {
                    "internalType": "address",
                    "name": "from",
                    "type": "address"
                },
                {
                    "internalType": "address",
                    "name": "to",
                    "type": "address"
                },
                {
                    "internalType": "uint256",
                    "name": "tokenId",
                    "type": "uint256"
                }
            ],
            "name": "safeTransferFrom",
            "outputs": [],
            "stateMutability": "nonpayable",
            "type": "function"
        },
        {
            "inputs": [
                {
                    "internalType": "address",
                    "name": "from",
                    "type": "address"
                },
                {
                    "internalType": "address",
                    "name": "to",
                    "type": "address"
                },
                {
                    "internalType": "uint256",
                    "name": "tokenId",
                    "type": "uint256"
                },
                {
                    "internalType": "bytes",
                    "name": "_data",
                    "type": "bytes"
                }
            ],
            "name": "safeTransferFrom",
            "outputs": [],
            "stateMutability": "nonpayable",
            "type": "function"
        },
        {
            "inputs": [
                {
                    "internalType": "address",
                    "name": "operator",
                    "type": "address"
                },
                {
                    "internalType": "bool",
                    "name": "approved",
                    "type": "bool"
                }
            ],
            "name": "setApprovalForAll",
            "outputs": [],
            "stateMutability": "nonpayable",
            "type": "function"
        },
        {
            "inputs": [
                {
                    "internalType": "bytes4",
                    "name": "interfaceId",
                    "type": "bytes4"
                }
            ],
            "name": "supportsInterface",
            "outputs": [
                {
                    "internalType": "bool",
                    "name": "",
                    "type": "bool"
                }
            ],
            "stateMutability": "view",
            "type": "function"
        },
        {
            "inputs": [],
            "name": "symbol",
            "outputs": [
                {
                    "internalType": "string",
                    "name": "",
                    "type": "string"
                }
            ],
            "stateMutability": "view",
            "type": "function"
        },
        {
            "inputs": [
                {
                    "internalType": "uint256",
                    "name": "_tokenId",
                    "type": "uint256"
                }
            ],
            "name": "tokenURI",
            "outputs": [
                {
                    "internalType": "string",
                    "name": "",
                    "type": "string"
                }
            ],
            "stateMutability": "view",
            "type": "function"
        },
        {
            "inputs": [
                {
                    "internalType": "address",
                    "name": "from",
                    "type": "address"
                },
                {
                    "internalType": "address",
                    "name": "to",
                    "type": "address"
                },
                {
                    "internalType": "uint256",
                    "name": "tokenId",
                    "type": "uint256"
                }
            ],
            "name": "transferFrom",
            "outputs": [],
            "stateMutability": "nonpayable",
            "type": "function"
        }
    ],
    "bytecode": "0x60806040523480156200001157600080fd5b506040516200598638038062005986833981810160405281019062000037919062000a98565b6040518060400160405280600881526020017f57617272696f72730000000000000000000000000000000000000000000000008152506040518060400160405280600381526020017f574f4c00000000000000000000000000000000000000000000000000000000008152508160009080519060200190620000bb92919062000800565b508060019080519060200190620000d492919062000800565b5050506040518060a0016040528085815260200184815260200183815260200183815260200182815250600960008201518160000190805190602001906200011e92919062000800565b5060208201518160010190805190602001906200013d92919062000800565b50604082015181600201556060820151816003015560808201518160040155905050620002306040518060600160405280603081526020016200595660309139600960000180546200018f9062000e02565b80601f0160208091040260200160405190810160405280929190818152602001828054620001bd9062000e02565b80156200020e5780601f10620001e2576101008083540402835291602001916200020e565b820191906000526020600020905b815481529060010190602001808311620001f057829003601f168201915b50505050506009600201546009600401546200066c60201b62001d301760201c565b60005b8851811015620006465760076040518060c001604052808381526020018b84815181106200028a577f4e487b7100000000000000000000000000000000000000000000000000000000600052603260045260246000fd5b602002602001015181526020018a8481518110620002d1577f4e487b7100000000000000000000000000000000000000000000000000000000600052603260045260246000fd5b6020026020010151815260200189848151811062000318577f4e487b7100000000000000000000000000000000000000000000000000000000600052603260045260246000fd5b602002602001015181526020018984815181106200035f577f4e487b7100000000000000000000000000000000000000000000000000000000600052603260045260246000fd5b60200260200101518152602001888481518110620003a6577f4e487b7100000000000000000000000000000000000000000000000000000000600052603260045260246000fd5b602002602001015181525090806001815401808255809150506001900390600052602060002090600602016000909190919091506000820151816000015560208201518160010190805190602001906200040292919062000800565b5060408201518160020190805190602001906200042192919062000800565b50606082015181600301556080820151816004015560a0820151816005015550506000600782815481106200047f577f4e487b7100000000000000000000000000000000000000000000000000000000600052603260045260246000fd5b90600052602060002090600602016040518060c001604052908160008201548152602001600182018054620004b49062000e02565b80601f0160208091040260200160405190810160405280929190818152602001828054620004e29062000e02565b8015620005335780601f10620005075761010080835404028352916020019162000533565b820191906000526020600020905b8154815290600101906020018083116200051557829003601f168201915b505050505081526020016002820180546200054e9062000e02565b80601f01602080910402602001604051908101604052809291908181526020018280546200057c9062000e02565b8015620005cd5780601f10620005a157610100808354040283529160200191620005cd565b820191906000526020600020905b815481529060010190602001808311620005af57829003601f168201915b50505050508152602001600382015481526020016004820154815260200160058201548152505090506200062f6040518060600160405280602581526020016200593160259139826020015183606001516200071860201b62001dd21760201c565b5080806200063d9062000e6e565b91505062000233565b506200065e6006620007c160201b62001e711760201c565b505050505050505062000f74565b620007128484848460405160240162000689949392919062000c8e565b6040516020818303038152906040527fd5cf17d0000000000000000000000000000000000000000000000000000000007bffffffffffffffffffffffffffffffffffffffffffffffffffffffff19166020820180517bffffffffffffffffffffffffffffffffffffffffffffffffffffffff8381831617835250505050620007d760201b60201c565b50505050565b620007bc838383604051602401620007339392919062000c43565b6040516020818303038152906040527ff362ca59000000000000000000000000000000000000000000000000000000007bffffffffffffffffffffffffffffffffffffffffffffffffffffffff19166020820180517bffffffffffffffffffffffffffffffffffffffffffffffffffffffff8381831617835250505050620007d760201b60201c565b505050565b6001816000016000828254019250508190555050565b60008151905060006a636f6e736f6c652e6c6f679050602083016000808483855afa5050505050565b8280546200080e9062000e02565b90600052602060002090601f0160209004810192826200083257600085556200087e565b82601f106200084d57805160ff19168380011785556200087e565b828001600101855582156200087e579182015b828111156200087d57825182559160200191906001019062000860565b5b5090506200088d919062000891565b5090565b5b80821115620008ac57600081600090555060010162000892565b5090565b6000620008c7620008c18462000d12565b62000ce9565b90508083825260208201905082856020860282011115620008e757600080fd5b60005b858110156200093657815167ffffffffffffffff8111156200090b57600080fd5b8086016200091a898262000a54565b85526020850194506020840193505050600181019050620008ea565b5050509392505050565b600062000957620009518462000d41565b62000ce9565b905080838252602082019050828560208602820111156200097757600080fd5b60005b85811015620009ab578162000990888262000a81565b8452602084019350602083019250506001810190506200097a565b5050509392505050565b6000620009cc620009c68462000d70565b62000ce9565b905082815260208101848484011115620009e557600080fd5b620009f284828562000dcc565b509392505050565b600082601f83011262000a0c57600080fd5b815162000a1e848260208601620008b0565b91505092915050565b600082601f83011262000a3957600080fd5b815162000a4b84826020860162000940565b91505092915050565b600082601f83011262000a6657600080fd5b815162000a78848260208601620009b5565b91505092915050565b60008151905062000a928162000f5a565b92915050565b600080600080600080600080610100898b03121562000ab657600080fd5b600089015167ffffffffffffffff81111562000ad157600080fd5b62000adf8b828c01620009fa565b985050602089015167ffffffffffffffff81111562000afd57600080fd5b62000b0b8b828c01620009fa565b975050604089015167ffffffffffffffff81111562000b2957600080fd5b62000b378b828c0162000a27565b965050606089015167ffffffffffffffff81111562000b5557600080fd5b62000b638b828c0162000a27565b955050608089015167ffffffffffffffff81111562000b8157600080fd5b62000b8f8b828c0162000a54565b94505060a089015167ffffffffffffffff81111562000bad57600080fd5b62000bbb8b828c0162000a54565b93505060c062000bce8b828c0162000a81565b92505060e062000be18b828c0162000a81565b9150509295985092959890939650565b600062000bfe8262000da6565b62000c0a818562000db1565b935062000c1c81856020860162000dcc565b62000c278162000f49565b840191505092915050565b62000c3d8162000dc2565b82525050565b6000606082019050818103600083015262000c5f818662000bf1565b9050818103602083015262000c75818562000bf1565b905062000c86604083018462000c32565b949350505050565b6000608082019050818103600083015262000caa818762000bf1565b9050818103602083015262000cc0818662000bf1565b905062000cd1604083018562000c32565b62000ce0606083018462000c32565b95945050505050565b600062000cf562000d08565b905062000d03828262000e38565b919050565b6000604051905090565b600067ffffffffffffffff82111562000d305762000d2f62000f1a565b5b602082029050602081019050919050565b600067ffffffffffffffff82111562000d5f5762000d5e62000f1a565b5b602082029050602081019050919050565b600067ffffffffffffffff82111562000d8e5762000d8d62000f1a565b5b62000d998262000f49565b9050602081019050919050565b600081519050919050565b600082825260208201905092915050565b6000819050919050565b60005b8381101562000dec57808201518184015260208101905062000dcf565b8381111562000dfc576000848401525b50505050565b6000600282049050600182168062000e1b57607f821691505b6020821081141562000e325762000e3162000eeb565b5b50919050565b62000e438262000f49565b810181811067ffffffffffffffff8211171562000e655762000e6462000f1a565b5b80604052505050565b600062000e7b8262000dc2565b91507fffffffffffffffffffffffffffffffffffffffffffffffffffffffffffffffff82141562000eb15762000eb062000ebc565b5b600182019050919050565b7f4e487b7100000000000000000000000000000000000000000000000000000000600052601160045260246000fd5b7f4e487b7100000000000000000000000000000000000000000000000000000000600052602260045260246000fd5b7f4e487b7100000000000000000000000000000000000000000000000000000000600052604160045260246000fd5b6000601f19601f8301169050919050565b62000f658162000dc2565b811462000f7157600080fd5b50565b6149ad8062000f846000396000f3fe608060405234801561001057600080fd5b50600436106101375760003560e01c806398da4c95116100b8578063c76d9e7d1161007c578063c76d9e7d14610369578063c87b56dd14610387578063c8cf27f4146103b7578063d4f24c5b146103d5578063e985e9c5146103df578063f8b81ef71461040f57610137565b806398da4c95146102bc578063a22cb465146102f1578063a9c326791461030d578063b88d4fde1461032f578063b953084e1461034b57610137565b806342842e0e116100ff57806342842e0e146101f25780636352211e1461020e57806370a082311461023e5780637df124a11461026e57806395d89b411461029e57610137565b806301ffc9a71461013c57806306fdde031461016c578063081812fc1461018a578063095ea7b3146101ba57806323b872dd146101d6575b600080fd5b610156600480360381019061015191906130a0565b61042b565b6040516101639190613905565b60405180910390f35b61017461050d565b6040516101819190613920565b60405180910390f35b6101a4600480360381019061019f91906130f2565b61059f565b6040516101b19190613845565b60405180910390f35b6101d460048036038101906101cf9190613064565b610624565b005b6101f060048036038101906101eb9190612f5e565b61073c565b005b61020c60048036038101906102079190612f5e565b61079c565b005b610228600480360381019061022391906130f2565b6107bc565b6040516102359190613845565b60405180910390f35b61025860048036038101906102539190612ef9565b61086e565b6040516102659190613ccd565b60405180910390f35b61028860048036038101906102839190612ef9565b610926565b6040516102959190613ccd565b60405180910390f35b6102a661093e565b6040516102b39190613920565b60405180910390f35b6102d660048036038101906102d191906130f2565b6109d0565b6040516102e896959493929190613ce8565b60405180910390f35b61030b60048036038101906103069190613028565b610b1c565b005b610315610c9d565b6040516103269594939291906139da565b60405180910390f35b61034960048036038101906103449190612fad565b610dd1565b005b610353610e33565b60405161036091906138e3565b60405180910390f35b610371610fde565b60405161037e9190613cab565b60405180910390f35b6103a1600480360381019061039c91906130f2565b61113a565b6040516103ae9190613920565b60405180910390f35b6103bf611355565b6040516103cc9190613c89565b60405180910390f35b6103dd61152c565b005b6103f960048036038101906103f49190612f22565b6118a8565b6040516104069190613905565b60405180910390f35b610429600480360381019061042491906130f2565b61193c565b005b60007f80ac58cd000000000000000000000000000000000000000000000000000000007bffffffffffffffffffffffffffffffffffffffffffffffffffffffff1916827bffffffffffffffffffffffffffffffffffffffffffffffffffffffff191614806104f657507f5b5e139f000000000000000000000000000000000000000000000000000000007bffffffffffffffffffffffffffffffffffffffffffffffffffffffff1916827bffffffffffffffffffffffffffffffffffffffffffffffffffffffff1916145b80610506575061050582611e87565b5b9050919050565b60606000805461051c9061402e565b80601f01602080910402602001604051908101604052809291908181526020018280546105489061402e565b80156105955780601f1061056a57610100808354040283529160200191610595565b820191906000526020600020905b81548152906001019060200180831161057857829003601f168201915b5050505050905090565b60006105aa82611ef1565b6105e9576040517f08c379a00000000000000000000000000000000000000000000000000000000081526004016105e090613c09565b60405180910390fd5b6004600083815260200190815260200160002060009054906101000a900473ffffffffffffffffffffffffffffffffffffffff169050919050565b600061062f826107bc565b90508073ffffffffffffffffffffffffffffffffffffffff168373ffffffffffffffffffffffffffffffffffffffff1614156106a0576040517f08c379a000000000000000000000000000000000000000000000000000000000815260040161069790613c49565b60405180910390fd5b8073ffffffffffffffffffffffffffffffffffffffff166106bf611f5d565b73ffffffffffffffffffffffffffffffffffffffff1614806106ee57506106ed816106e8611f5d565b6118a8565b5b61072d576040517f08c379a000000000000000000000000000000000000000000000000000000000815260040161072490613b89565b60405180910390fd5b6107378383611f65565b505050565b61074d610747611f5d565b8261201e565b61078c576040517f08c379a000000000000000000000000000000000000000000000000000000000815260040161078390613c69565b60405180910390fd5b6107978383836120fc565b505050565b6107b783838360405180602001604052806000815250610dd1565b505050565b6000806002600084815260200190815260200160002060009054906101000a900473ffffffffffffffffffffffffffffffffffffffff169050600073ffffffffffffffffffffffffffffffffffffffff168173ffffffffffffffffffffffffffffffffffffffff161415610865576040517f08c379a000000000000000000000000000000000000000000000000000000000815260040161085c90613bc9565b60405180910390fd5b80915050919050565b60008073ffffffffffffffffffffffffffffffffffffffff168273ffffffffffffffffffffffffffffffffffffffff1614156108df576040517f08c379a00000000000000000000000000000000000000000000000000000000081526004016108d690613ba9565b60405180910390fd5b600360008373ffffffffffffffffffffffffffffffffffffffff1673ffffffffffffffffffffffffffffffffffffffff168152602001908152602001600020549050919050565b600e6020528060005260406000206000915090505481565b60606001805461094d9061402e565b80601f01602080910402602001604051908101604052809291908181526020018280546109799061402e565b80156109c65780601f1061099b576101008083540402835291602001916109c6565b820191906000526020600020905b8154815290600101906020018083116109a957829003601f168201915b5050505050905090565b60086020528060005260406000206000915090508060000154908060010180546109f99061402e565b80601f0160208091040260200160405190810160405280929190818152602001828054610a259061402e565b8015610a725780601f10610a4757610100808354040283529160200191610a72565b820191906000526020600020905b815481529060010190602001808311610a5557829003601f168201915b505050505090806002018054610a879061402e565b80601f0160208091040260200160405190810160405280929190818152602001828054610ab39061402e565b8015610b005780601f10610ad557610100808354040283529160200191610b00565b820191906000526020600020905b815481529060010190602001808311610ae357829003601f168201915b5050505050908060030154908060040154908060050154905086565b610b24611f5d565b73ffffffffffffffffffffffffffffffffffffffff168273ffffffffffffffffffffffffffffffffffffffff161415610b92576040517f08c379a0000000000000000000000000000000000000000000000000000000008152600401610b8990613b49565b60405180910390fd5b8060056000610b9f611f5d565b73ffffffffffffffffffffffffffffffffffffffff1673ffffffffffffffffffffffffffffffffffffffff16815260200190815260200160002060008473ffffffffffffffffffffffffffffffffffffffff1673ffffffffffffffffffffffffffffffffffffffff16815260200190815260200160002060006101000a81548160ff0219169083151502179055508173ffffffffffffffffffffffffffffffffffffffff16610c4c611f5d565b73ffffffffffffffffffffffffffffffffffffffff167f17307eab39ab6107e8899845ad3d59bd9653f200f220920489ca2b5937696c3183604051610c919190613905565b60405180910390a35050565b6009806000018054610cae9061402e565b80601f0160208091040260200160405190810160405280929190818152602001828054610cda9061402e565b8015610d275780601f10610cfc57610100808354040283529160200191610d27565b820191906000526020600020905b815481529060010190602001808311610d0a57829003601f168201915b505050505090806001018054610d3c9061402e565b80601f0160208091040260200160405190810160405280929190818152602001828054610d689061402e565b8015610db55780601f10610d8a57610100808354040283529160200191610db5565b820191906000526020600020905b815481529060010190602001808311610d9857829003601f168201915b5050505050908060020154908060030154908060040154905085565b610de2610ddc611f5d565b8361201e565b610e21576040517f08c379a0000000000000000000000000000000000000000000000000000000008152600401610e1890613c69565b60405180910390fd5b610e2d84848484612358565b50505050565b60606007805480602002602001604051908101604052809291908181526020016000905b82821015610fd557838290600052602060002090600602016040518060c001604052908160008201548152602001600182018054610e949061402e565b80601f0160208091040260200160405190810160405280929190818152602001828054610ec09061402e565b8015610f0d5780601f10610ee257610100808354040283529160200191610f0d565b820191906000526020600020905b815481529060010190602001808311610ef057829003601f168201915b50505050508152602001600282018054610f269061402e565b80601f0160208091040260200160405190810160405280929190818152602001828054610f529061402e565b8015610f9f5780601f10610f7457610100808354040283529160200191610f9f565b820191906000526020600020905b815481529060010190602001808311610f8257829003601f168201915b50505050508152602001600382015481526020016004820154815260200160058201548152505081526020019060010190610e57565b50505050905090565b610fe6612d20565b60096040518060a00160405290816000820180546110039061402e565b80601f016020809104026020016040519081016040528092919081815260200182805461102f9061402e565b801561107c5780601f106110515761010080835404028352916020019161107c565b820191906000526020600020905b81548152906001019060200180831161105f57829003601f168201915b505050505081526020016001820180546110959061402e565b80601f01602080910402602001604051908101604052809291908181526020018280546110c19061402e565b801561110e5780601f106110e35761010080835404028352916020019161110e565b820191906000526020600020905b8154815290600101906020018083116110f157829003601f168201915b505050505081526020016002820154815260200160038201548152602001600482015481525050905090565b60606000600860008481526020019081526020016000206040518060c0016040529081600082015481526020016001820180546111769061402e565b80601f01602080910402602001604051908101604052809291908181526020018280546111a29061402e565b80156111ef5780601f106111c4576101008083540402835291602001916111ef565b820191906000526020600020905b8154815290600101906020018083116111d257829003601f168201915b505050505081526020016002820180546112089061402e565b80601f01602080910402602001604051908101604052809291908181526020018280546112349061402e565b80156112815780601f1061125657610100808354040283529160200191611281565b820191906000526020600020905b81548152906001019060200180831161126457829003601f168201915b505050505081526020016003820154815260200160048201548152602001600582015481525050905060006112b982606001516123b4565b905060006112ca83608001516123b4565b905060006112db8460a001516123b4565b9050600061132185602001516112f0896123b4565b876040015187878760405160200161130d9695949392919061377e565b604051602081830303815290604052612561565b90506000816040516020016113369190613823565b6040516020818303038152906040529050809650505050505050919050565b61135d612d4f565b6000600e60003373ffffffffffffffffffffffffffffffffffffffff1673ffffffffffffffffffffffffffffffffffffffff1681526020019081526020016000205490506000811461151b57600860008281526020019081526020016000206040518060c0016040529081600082015481526020016001820180546113e19061402e565b80601f016020809104026020016040519081016040528092919081815260200182805461140d9061402e565b801561145a5780601f1061142f5761010080835404028352916020019161145a565b820191906000526020600020905b81548152906001019060200180831161143d57829003601f168201915b505050505081526020016002820180546114739061402e565b80601f016020809104026020016040519081016040528092919081815260200182805461149f9061402e565b80156114ec5780601f106114c1576101008083540402835291602001916114ec565b820191906000526020600020905b8154815290600101906020018083116114cf57829003601f168201915b505050505081526020016003820154815260200160048201548152602001600582015481525050915050611529565b611523612d4f565b80925050505b90565b6000600e60003373ffffffffffffffffffffffffffffffffffffffff1673ffffffffffffffffffffffffffffffffffffffff1681526020019081526020016000205490506115793361271f565b60006008600083815260200190815260200160002090506116486040518060800160405280604a815260200161492e604a91398260010180546115bb9061402e565b80601f01602080910402602001604051908101604052809291908181526020018280546115e79061402e565b80156116345780601f1061160957610100808354040283529160200191611634565b820191906000526020600020905b81548152906001019060200180831161161757829003601f168201915b505050505083600301548460050154611d30565b6117036040518060600160405280602381526020016148a060239139600960000180546116749061402e565b80601f01602080910402602001604051908101604052809291908181526020018280546116a09061402e565b80156116ed5780601f106116c2576101008083540402835291602001916116ed565b820191906000526020600020905b8154815290600101906020018083116116d057829003601f168201915b5050505050600960020154600960040154611d30565b600081600301541161174a576040517f08c379a000000000000000000000000000000000000000000000000000000000815260040161174190613aa9565b60405180910390fd5b600060096002015411611792576040517f08c379a000000000000000000000000000000000000000000000000000000000815260040161178990613ae9565b60405180910390fd5b806005015460096002015410156117b35760006009600201819055506117d4565b8060050154600960020160008282546117cc9190613f44565b925050819055505b600960040154816003015410156117f45760008160030181905550611815565b60096004015481600301600082825461180d9190613f44565b925050819055505b61183c6040518060600160405280602a8152602001614844602a91396009600201546127b8565b6118626040518060600160405280602b81526020016148c3602b913982600301546127b8565b7f838ab28464562786a6c4ab2311964b82fa60bd9b14aa7e856af1f3f18d41a414600960020154826003015460405161189c929190613d57565b60405180910390a15050565b6000600560008473ffffffffffffffffffffffffffffffffffffffff1673ffffffffffffffffffffffffffffffffffffffff16815260200190815260200160002060008373ffffffffffffffffffffffffffffffffffffffff1673ffffffffffffffffffffffffffffffffffffffff16815260200190815260200160002060009054906101000a900460ff16905092915050565b60006119486006612854565b90506119543382612862565b6040518060c001604052808381526020016007848154811061199f577f4e487b7100000000000000000000000000000000000000000000000000000000600052603260045260246000fd5b906000526020600020906006020160010180546119bb9061402e565b80601f01602080910402602001604051908101604052809291908181526020018280546119e79061402e565b8015611a345780601f10611a0957610100808354040283529160200191611a34565b820191906000526020600020905b815481529060010190602001808311611a1757829003601f168201915b5050505050815260200160078481548110611a78577f4e487b7100000000000000000000000000000000000000000000000000000000600052603260045260246000fd5b90600052602060002090600602016002018054611a949061402e565b80601f0160208091040260200160405190810160405280929190818152602001828054611ac09061402e565b8015611b0d5780601f10611ae257610100808354040283529160200191611b0d565b820191906000526020600020905b815481529060010190602001808311611af057829003601f168201915b5050505050815260200160078481548110611b51577f4e487b7100000000000000000000000000000000000000000000000000000000600052603260045260246000fd5b906000526020600020906006020160030154815260200160078481548110611ba2577f4e487b7100000000000000000000000000000000000000000000000000000000600052603260045260246000fd5b906000526020600020906006020160040154815260200160078481548110611bf3577f4e487b7100000000000000000000000000000000000000000000000000000000600052603260045260246000fd5b90600052602060002090600602016005015481525060086000838152602001908152602001600020600082015181600001556020820151816001019080519060200190611c41929190612d85565b506040820151816002019080519060200190611c5e929190612d85565b50606082015181600301556080820151816004015560a08201518160050155905050611ca360405180606001604052806032815260200161486e603291398284612880565b80600e60003373ffffffffffffffffffffffffffffffffffffffff1673ffffffffffffffffffffffffffffffffffffffff16815260200190815260200160002081905550611cf16006611e71565b7f4bc303fd457a97b4691b9af582ce71868a3d258638c8d4f8c60988a0f0bfb8cd338284604051611d24939291906138ac565b60405180910390a15050565b611dcc84848484604051602401611d4a9493929190613987565b6040516020818303038152906040527fd5cf17d0000000000000000000000000000000000000000000000000000000007bffffffffffffffffffffffffffffffffffffffffffffffffffffffff19166020820180517bffffffffffffffffffffffffffffffffffffffffffffffffffffffff838183161783525050505061291f565b50505050565b611e6c838383604051602401611dea93929190613942565b6040516020818303038152906040527ff362ca59000000000000000000000000000000000000000000000000000000007bffffffffffffffffffffffffffffffffffffffffffffffffffffffff19166020820180517bffffffffffffffffffffffffffffffffffffffffffffffffffffffff838183161783525050505061291f565b505050565b6001816000016000828254019250508190555050565b60007f01ffc9a7000000000000000000000000000000000000000000000000000000007bffffffffffffffffffffffffffffffffffffffffffffffffffffffff1916827bffffffffffffffffffffffffffffffffffffffffffffffffffffffff1916149050919050565b60008073ffffffffffffffffffffffffffffffffffffffff166002600084815260200190815260200160002060009054906101000a900473ffffffffffffffffffffffffffffffffffffffff1673ffffffffffffffffffffffffffffffffffffffff1614159050919050565b600033905090565b816004600083815260200190815260200160002060006101000a81548173ffffffffffffffffffffffffffffffffffffffff021916908373ffffffffffffffffffffffffffffffffffffffff160217905550808273ffffffffffffffffffffffffffffffffffffffff16611fd8836107bc565b73ffffffffffffffffffffffffffffffffffffffff167f8c5be1e5ebec7d5bd14f71427d1e84f3dd0314c0f7b2291e5b200ac8c7c3b92560405160405180910390a45050565b600061202982611ef1565b612068576040517f08c379a000000000000000000000000000000000000000000000000000000000815260040161205f90613b69565b60405180910390fd5b6000612073836107bc565b90508073ffffffffffffffffffffffffffffffffffffffff168473ffffffffffffffffffffffffffffffffffffffff1614806120e257508373ffffffffffffffffffffffffffffffffffffffff166120ca8461059f565b73ffffffffffffffffffffffffffffffffffffffff16145b806120f357506120f281856118a8565b5b91505092915050565b8273ffffffffffffffffffffffffffffffffffffffff1661211c826107bc565b73ffffffffffffffffffffffffffffffffffffffff1614612172576040517f08c379a000000000000000000000000000000000000000000000000000000000815260040161216990613c29565b60405180910390fd5b600073ffffffffffffffffffffffffffffffffffffffff168273ffffffffffffffffffffffffffffffffffffffff1614156121e2576040517f08c379a00000000000000000000000000000000000000000000000000000000081526004016121d990613b29565b60405180910390fd5b6121ed838383612948565b6121f8600082611f65565b6001600360008573ffffffffffffffffffffffffffffffffffffffff1673ffffffffffffffffffffffffffffffffffffffff16815260200190815260200160002060008282546122489190613f44565b925050819055506001600360008473ffffffffffffffffffffffffffffffffffffffff1673ffffffffffffffffffffffffffffffffffffffff168152602001908152602001600020600082825461229f9190613e63565b92505081905550816002600083815260200190815260200160002060006101000a81548173ffffffffffffffffffffffffffffffffffffffff021916908373ffffffffffffffffffffffffffffffffffffffff160217905550808273ffffffffffffffffffffffffffffffffffffffff168473ffffffffffffffffffffffffffffffffffffffff167fddf252ad1be2c89b69c2b068fc378daa952ba7f163c4a11628f55a4df523b3ef60405160405180910390a4505050565b6123638484846120fc565b61236f8484848461294d565b6123ae576040517f08c379a00000000000000000000000000000000000000000000000000000000081526004016123a590613ac9565b60405180910390fd5b50505050565b606060008214156123fc576040518060400160405280600181526020017f3000000000000000000000000000000000000000000000000000000000000000815250905061255c565b600082905060005b6000821461242e57808061241790614091565b915050600a826124279190613eb9565b9150612404565b60008167ffffffffffffffff811115612470577f4e487b7100000000000000000000000000000000000000000000000000000000600052604160045260246000fd5b6040519080825280601f01601f1916602001820160405280156124a25781602001600182028036833780820191505090505b5090505b60008514612555576001826124bb9190613f44565b9150600a856124ca91906140da565b60306124d69190613e63565b60f81b818381518110612512577f4e487b7100000000000000000000000000000000000000000000000000000000600052603260045260246000fd5b60200101907effffffffffffffffffffffffffffffffffffffffffffffffffffffffffffff1916908160001a905350600a8561254e9190613eb9565b94506124a6565b8093505050505b919050565b6060600082519050600081141561258a576040518060200160405280600081525091505061271a565b6000600360028361259b9190613e63565b6125a59190613eb9565b60046125b19190613eea565b905060006020826125c29190613e63565b67ffffffffffffffff811115612601577f4e487b7100000000000000000000000000000000000000000000000000000000600052604160045260246000fd5b6040519080825280601f01601f1916602001820160405280156126335781602001600182028036833780820191505090505b50905060006040518060600160405280604081526020016148ee604091399050600181016020830160005b868110156126d75760038101905062ffffff818a015116603f8160121c168401518060081b905060ff603f83600c1c1686015116810190508060081b905060ff603f8360061c1686015116810190508060081b905060ff603f831686015116810190508060e01b9050808452600484019350505061265e565b5060038606600181146126f157600281146127015761270c565b613d3d60f01b600283035261270c565b603d60f81b60018303525b508484525050819450505050505b919050565b6127b5816040516024016127339190613845565b6040516020818303038152906040527f2c2ecbc2000000000000000000000000000000000000000000000000000000007bffffffffffffffffffffffffffffffffffffffffffffffffffffffff19166020820180517bffffffffffffffffffffffffffffffffffffffffffffffffffffffff838183161783525050505061291f565b50565b61285082826040516024016127ce929190613a3b565b6040516020818303038152906040527f9710a9d0000000000000000000000000000000000000000000000000000000007bffffffffffffffffffffffffffffffffffffffffffffffffffffffff19166020820180517bffffffffffffffffffffffffffffffffffffffffffffffffffffffff838183161783525050505061291f565b5050565b600081600001549050919050565b61287c828260405180602001604052806000815250612ae4565b5050565b61291a83838360405160240161289893929190613a6b565b6040516020818303038152906040527f969cdd03000000000000000000000000000000000000000000000000000000007bffffffffffffffffffffffffffffffffffffffffffffffffffffffff19166020820180517bffffffffffffffffffffffffffffffffffffffffffffffffffffffff838183161783525050505061291f565b505050565b60008151905060006a636f6e736f6c652e6c6f679050602083016000808483855afa5050505050565b505050565b600061296e8473ffffffffffffffffffffffffffffffffffffffff16612b3f565b15612ad7578373ffffffffffffffffffffffffffffffffffffffff1663150b7a02612997611f5d565b8786866040518563ffffffff1660e01b81526004016129b99493929190613860565b602060405180830381600087803b1580156129d357600080fd5b505af1925050508015612a0457506040513d601f19601f82011682018060405250810190612a0191906130c9565b60015b612a87573d8060008114612a34576040519150601f19603f3d011682016040523d82523d6000602084013e612a39565b606091505b50600081511415612a7f576040517f08c379a0000000000000000000000000000000000000000000000000000000008152600401612a7690613ac9565b60405180910390fd5b805181602001fd5b63150b7a0260e01b7bffffffffffffffffffffffffffffffffffffffffffffffffffffffff1916817bffffffffffffffffffffffffffffffffffffffffffffffffffffffff191614915050612adc565b600190505b949350505050565b612aee8383612b52565b612afb600084848461294d565b612b3a576040517f08c379a0000000000000000000000000000000000000000000000000000000008152600401612b3190613ac9565b60405180910390fd5b505050565b600080823b905060008111915050919050565b600073ffffffffffffffffffffffffffffffffffffffff168273ffffffffffffffffffffffffffffffffffffffff161415612bc2576040517f08c379a0000000000000000000000000000000000000000000000000000000008152600401612bb990613be9565b60405180910390fd5b612bcb81611ef1565b15612c0b576040517f08c379a0000000000000000000000000000000000000000000000000000000008152600401612c0290613b09565b60405180910390fd5b612c1760008383612948565b6001600360008473ffffffffffffffffffffffffffffffffffffffff1673ffffffffffffffffffffffffffffffffffffffff1681526020019081526020016000206000828254612c679190613e63565b92505081905550816002600083815260200190815260200160002060006101000a81548173ffffffffffffffffffffffffffffffffffffffff021916908373ffffffffffffffffffffffffffffffffffffffff160217905550808273ffffffffffffffffffffffffffffffffffffffff16600073ffffffffffffffffffffffffffffffffffffffff167fddf252ad1be2c89b69c2b068fc378daa952ba7f163c4a11628f55a4df523b3ef60405160405180910390a45050565b6040518060a0016040528060608152602001606081526020016000815260200160008152602001600081525090565b6040518060c001604052806000815260200160608152602001606081526020016000815260200160008152602001600081525090565b828054612d919061402e565b90600052602060002090601f016020900481019282612db35760008555612dfa565b82601f10612dcc57805160ff1916838001178555612dfa565b82800160010185558215612dfa579182015b82811115612df9578251825591602001919060010190612dde565b5b509050612e079190612e0b565b5090565b5b80821115612e24576000816000905550600101612e0c565b5090565b6000612e3b612e3684613da5565b613d80565b905082815260208101848484011115612e5357600080fd5b612e5e848285613fec565b509392505050565b600081359050612e75816147e7565b92915050565b600081359050612e8a816147fe565b92915050565b600081359050612e9f81614815565b92915050565b600081519050612eb481614815565b92915050565b600082601f830112612ecb57600080fd5b8135612edb848260208601612e28565b91505092915050565b600081359050612ef38161482c565b92915050565b600060208284031215612f0b57600080fd5b6000612f1984828501612e66565b91505092915050565b60008060408385031215612f3557600080fd5b6000612f4385828601612e66565b9250506020612f5485828601612e66565b9150509250929050565b600080600060608486031215612f7357600080fd5b6000612f8186828701612e66565b9350506020612f9286828701612e66565b9250506040612fa386828701612ee4565b9150509250925092565b60008060008060808587031215612fc357600080fd5b6000612fd187828801612e66565b9450506020612fe287828801612e66565b9350506040612ff387828801612ee4565b925050606085013567ffffffffffffffff81111561301057600080fd5b61301c87828801612eba565b91505092959194509250565b6000806040838503121561303b57600080fd5b600061304985828601612e66565b925050602061305a85828601612e7b565b9150509250929050565b6000806040838503121561307757600080fd5b600061308585828601612e66565b925050602061309685828601612ee4565b9150509250929050565b6000602082840312156130b257600080fd5b60006130c084828501612e90565b91505092915050565b6000602082840312156130db57600080fd5b60006130e984828501612ea5565b91505092915050565b60006020828403121561310457600080fd5b600061311284828501612ee4565b91505092915050565b600061312783836135c3565b905092915050565b61313881613f78565b82525050565b600061314982613de6565b6131538185613e14565b93508360208202850161316585613dd6565b8060005b858110156131a15784840389528151613182858261311b565b945061318d83613e07565b925060208a01995050600181019050613169565b50829750879550505050505092915050565b6131bc81613f8a565b82525050565b60006131cd82613df1565b6131d78185613e25565b93506131e7818560208601613ffb565b6131f0816141c7565b840191505092915050565b600061320682613dfc565b6132108185613e36565b9350613220818560208601613ffb565b613229816141c7565b840191505092915050565b600061323f82613dfc565b6132498185613e47565b9350613259818560208601613ffb565b613262816141c7565b840191505092915050565b600061327882613dfc565b6132828185613e58565b9350613292818560208601613ffb565b80840191505092915050565b60006132ab600b83613e58565b91506132b6826141d8565b600b82019050919050565b60006132ce602183613e47565b91506132d982614201565b604082019050919050565b60006132f1603283613e47565b91506132fc82614250565b604082019050919050565b6000613314601983613e47565b915061331f8261429f565b602082019050919050565b6000613337601c83613e47565b9150613342826142c8565b602082019050919050565b600061335a600e83613e58565b9150613365826142f1565b600e82019050919050565b600061337d602483613e47565b91506133888261431a565b604082019050919050565b60006133a0601983613e47565b91506133ab82614369565b602082019050919050565b60006133c3602c83613e47565b91506133ce82614392565b604082019050919050565b60006133e6603883613e47565b91506133f1826143e1565b604082019050919050565b6000613409602a83613e47565b915061341482614430565b604082019050919050565b600061342c602983613e47565b91506134378261447f565b604082019050919050565b600061344f606283613e58565b915061345a826144ce565b606282019050919050565b6000613472600483613e58565b915061347d82614569565b600482019050919050565b6000613495602083613e47565b91506134a082614592565b602082019050919050565b60006134b8602c83613e47565b91506134c3826145bb565b604082019050919050565b60006134db602983613e47565b91506134e68261460a565b604082019050919050565b60006134fe600a83613e58565b915061350982614659565b600a82019050919050565b6000613521602183613e47565b915061352c82614682565b604082019050919050565b6000613544601d83613e58565b915061354f826146d1565b601d82019050919050565b6000613567603183613e47565b9150613572826146fa565b604082019050919050565b600061358a603d83613e58565b915061359582614749565b603d82019050919050565b60006135ad602d83613e58565b91506135b882614798565b602d82019050919050565b600060c0830160008301516135db6000860182613760565b50602083015184820360208601526135f382826131fb565b9150506040830151848203604086015261360d82826131fb565b91505060608301516136226060860182613760565b5060808301516136356080860182613760565b5060a083015161364860a0860182613760565b508091505092915050565b600060c08301600083015161366b6000860182613760565b506020830151848203602086015261368382826131fb565b9150506040830151848203604086015261369d82826131fb565b91505060608301516136b26060860182613760565b5060808301516136c56080860182613760565b5060a08301516136d860a0860182613760565b508091505092915050565b600060a083016000830151848203600086015261370082826131fb565b9150506020830151848203602086015261371a82826131fb565b915050604083015161372f6040860182613760565b5060608301516137426060860182613760565b5060808301516137556080860182613760565b508091505092915050565b61376981613fe2565b82525050565b61377881613fe2565b82525050565b6000613789826134f1565b9150613795828961326d565b91506137a08261329e565b91506137ac828861326d565b91506137b782613442565b91506137c3828761326d565b91506137ce8261357d565b91506137da828661326d565b91506137e58261334d565b91506137f1828561326d565b91506137fc826135a0565b9150613808828461326d565b915061381382613465565b9150819050979650505050505050565b600061382e82613537565b915061383a828461326d565b915081905092915050565b600060208201905061385a600083018461312f565b92915050565b6000608082019050613875600083018761312f565b613882602083018661312f565b61388f604083018561376f565b81810360608301526138a181846131c2565b905095945050505050565b60006060820190506138c1600083018661312f565b6138ce602083018561376f565b6138db604083018461376f565b949350505050565b600060208201905081810360008301526138fd818461313e565b905092915050565b600060208201905061391a60008301846131b3565b92915050565b6000602082019050818103600083015261393a8184613234565b905092915050565b6000606082019050818103600083015261395c8186613234565b905081810360208301526139708185613234565b905061397f604083018461376f565b949350505050565b600060808201905081810360008301526139a18187613234565b905081810360208301526139b58186613234565b90506139c4604083018561376f565b6139d1606083018461376f565b95945050505050565b600060a08201905081810360008301526139f48188613234565b90508181036020830152613a088187613234565b9050613a17604083018661376f565b613a24606083018561376f565b613a31608083018461376f565b9695505050505050565b60006040820190508181036000830152613a558185613234565b9050613a64602083018461376f565b9392505050565b60006060820190508181036000830152613a858186613234565b9050613a94602083018561376f565b613aa1604083018461376f565b949350505050565b60006020820190508181036000830152613ac2816132c1565b9050919050565b60006020820190508181036000830152613ae2816132e4565b9050919050565b60006020820190508181036000830152613b0281613307565b9050919050565b60006020820190508181036000830152613b228161332a565b9050919050565b60006020820190508181036000830152613b4281613370565b9050919050565b60006020820190508181036000830152613b6281613393565b9050919050565b60006020820190508181036000830152613b82816133b6565b9050919050565b60006020820190508181036000830152613ba2816133d9565b9050919050565b60006020820190508181036000830152613bc2816133fc565b9050919050565b60006020820190508181036000830152613be28161341f565b9050919050565b60006020820190508181036000830152613c0281613488565b9050919050565b60006020820190508181036000830152613c22816134ab565b9050919050565b60006020820190508181036000830152613c42816134ce565b9050919050565b60006020820190508181036000830152613c6281613514565b9050919050565b60006020820190508181036000830152613c828161355a565b9050919050565b60006020820190508181036000830152613ca38184613653565b905092915050565b60006020820190508181036000830152613cc581846136e3565b905092915050565b6000602082019050613ce2600083018461376f565b92915050565b600060c082019050613cfd600083018961376f565b8181036020830152613d0f8188613234565b90508181036040830152613d238187613234565b9050613d32606083018661376f565b613d3f608083018561376f565b613d4c60a083018461376f565b979650505050505050565b6000604082019050613d6c600083018561376f565b613d79602083018461376f565b9392505050565b6000613d8a613d9b565b9050613d968282614060565b919050565b6000604051905090565b600067ffffffffffffffff821115613dc057613dbf614198565b5b613dc9826141c7565b9050602081019050919050565b6000819050602082019050919050565b600081519050919050565b600081519050919050565b600081519050919050565b6000602082019050919050565b600082825260208201905092915050565b600082825260208201905092915050565b600082825260208201905092915050565b600082825260208201905092915050565b600081905092915050565b6000613e6e82613fe2565b9150613e7983613fe2565b9250827fffffffffffffffffffffffffffffffffffffffffffffffffffffffffffffffff03821115613eae57613ead61410b565b5b828201905092915050565b6000613ec482613fe2565b9150613ecf83613fe2565b925082613edf57613ede61413a565b5b828204905092915050565b6000613ef582613fe2565b9150613f0083613fe2565b9250817fffffffffffffffffffffffffffffffffffffffffffffffffffffffffffffffff0483118215151615613f3957613f3861410b565b5b828202905092915050565b6000613f4f82613fe2565b9150613f5a83613fe2565b925082821015613f6d57613f6c61410b565b5b828203905092915050565b6000613f8382613fc2565b9050919050565b60008115159050919050565b60007fffffffff0000000000000000000000000000000000000000000000000000000082169050919050565b600073ffffffffffffffffffffffffffffffffffffffff82169050919050565b6000819050919050565b82818337600083830152505050565b60005b83811015614019578082015181840152602081019050613ffe565b83811115614028576000848401525b50505050565b6000600282049050600182168061404657607f821691505b6020821081141561405a57614059614169565b5b50919050565b614069826141c7565b810181811067ffffffffffffffff8211171561408857614087614198565b5b80604052505050565b600061409c82613fe2565b91507fffffffffffffffffffffffffffffffffffffffffffffffffffffffffffffffff8214156140cf576140ce61410b565b5b600182019050919050565b60006140e582613fe2565b91506140f083613fe2565b925082614100576140ff61413a565b5b828206905092915050565b7f4e487b7100000000000000000000000000000000000000000000000000000000600052601160045260246000fd5b7f4e487b7100000000000000000000000000000000000000000000000000000000600052601260045260246000fd5b7f4e487b7100000000000000000000000000000000000000000000000000000000600052602260045260246000fd5b7f4e487b7100000000000000000000000000000000000000000000000000000000600052604160045260246000fd5b6000601f19601f8301169050919050565b7f202d2d204e465420233a20000000000000000000000000000000000000000000600082015250565b7f596f752063616e6e6f742061747461636b20696620796f75277265206465616460008201527f2100000000000000000000000000000000000000000000000000000000000000602082015250565b7f4552433732313a207472616e7366657220746f206e6f6e20455243373231526560008201527f63656976657220696d706c656d656e7465720000000000000000000000000000602082015250565b7f54686520626f737320697320616c726561647920646561642100000000000000600082015250565b7f4552433732313a20746f6b656e20616c7265616479206d696e74656400000000600082015250565b7f2c20226d61785f76616c7565223a000000000000000000000000000000000000600082015250565b7f4552433732313a207472616e7366657220746f20746865207a65726f2061646460008201527f7265737300000000000000000000000000000000000000000000000000000000602082015250565b7f4552433732313a20617070726f766520746f2063616c6c657200000000000000600082015250565b7f4552433732313a206f70657261746f7220717565727920666f72206e6f6e657860008201527f697374656e7420746f6b656e0000000000000000000000000000000000000000602082015250565b7f4552433732313a20617070726f76652063616c6c6572206973206e6f74206f7760008201527f6e6572206e6f7220617070726f76656420666f7220616c6c0000000000000000602082015250565b7f4552433732313a2062616c616e636520717565727920666f7220746865207a6560008201527f726f206164647265737300000000000000000000000000000000000000000000602082015250565b7f4552433732313a206f776e657220717565727920666f72206e6f6e657869737460008201527f656e7420746f6b656e0000000000000000000000000000000000000000000000602082015250565b7f222c20226465736372697074696f6e223a20225468697320697320616e204e4660008201527f542074686174206c6574732070656f706c6520706c617920696e20746865206760208201527f616d65204d657461766572736520536c6179657221222c2022696d616765223a60408201527f2022000000000000000000000000000000000000000000000000000000000000606082015250565b7f7d205d7d00000000000000000000000000000000000000000000000000000000600082015250565b7f4552433732313a206d696e7420746f20746865207a65726f2061646472657373600082015250565b7f4552433732313a20617070726f76656420717565727920666f72206e6f6e657860008201527f697374656e7420746f6b656e0000000000000000000000000000000000000000602082015250565b7f4552433732313a207472616e73666572206f6620746f6b656e2074686174206960008201527f73206e6f74206f776e0000000000000000000000000000000000000000000000602082015250565b7f7b226e616d65223a202200000000000000000000000000000000000000000000600082015250565b7f4552433732313a20617070726f76616c20746f2063757272656e74206f776e6560008201527f7200000000000000000000000000000000000000000000000000000000000000602082015250565b7f646174613a6170706c69636174696f6e2f6a736f6e3b6261736536342c000000600082015250565b7f4552433732313a207472616e736665722063616c6c6572206973206e6f74206f60008201527f776e6572206e6f7220617070726f766564000000000000000000000000000000602082015250565b7f222c202261747472696275746573223a205b207b202274726169745f7479706560008201527f223a20224865616c746820506f696e7473222c202276616c7565223a20000000602082015250565b7f7d2c207b202274726169745f74797065223a202241747461636b2044616d616760008201527f65222c202276616c7565223a2000000000000000000000000000000000000000602082015250565b6147f081613f78565b81146147fb57600080fd5b50565b61480781613f8a565b811461481257600080fd5b50565b61481e81613f96565b811461482957600080fd5b50565b61483581613fe2565b811461484057600080fd5b5056fe506c617965722061747461636b65642e2054686520626f7373206865616c7468206973206e6f772025644d696e746564204e4654207769746820746f6b656e49443a20257320616e6420636861726163746572496e6465783a20257354686520626f737320257320686173202564206865616c746820616e64202564204144426f73732061747461636b65642e2054686520706c61796572206865616c7468206973206e6f772025640a4142434445464748494a4b4c4d4e4f505152535455565758595a6162636465666768696a6b6c6d6e6f707172737475767778797a303132333435363738392b2f506c617965722077697468206368617261637465722025732069732061626f757420746f2061747461636b2e20546865792068617665202564206865616c746820616e64202564204144a2646970667358221220c18207adcbe6968f834f1f1c2d00055bafa64b1a62b83fc7d5ba80b2f9adb9a264736f6c6343000804003343726561746564206368617261637465723a2025732077697468206865616c74683a202573496e697469616c6973656420626f73732025732077697468202564206865616c746820616e642025642061747461636b",
    "linkReferences": {},
    "deployedLinkReferences": {}
}